:100000000C9462000C948A000C948A000C948A0070
:100010000C948A000C948A000C948A000C948A0038
:100020000C948A000C948A000C948A000C948A0028
:100030000C948A000C948A000C948A000C948A0018
:100040000C94CF040C948A000C949D040C947704B7
:100050000C948A000C948A000C948A000C948A00F8
:100060000C948A000C948A000000000024002700F1
:100070002A0000000000250028002B0000000008D6
:10008000000201000003040700000000000000005F
:1000900000000000230026002900040404040404D6
:1000A0000404020202020202030303030303010227
:1000B00004081020408001020408102001020408F6
:1000C0001020190511241FBECFEFD8E0DEBFCDBF31
:1000D00011E0A0E0B1E0E8E7F6E102C005900D9282
:1000E000A83CB107D9F722E0A8ECB1E001C01D920D
:1000F000A639B207E1F710E0C2E6D0E004C02197CC
:10010000FE010E94340BC136D107C9F70E942006B8
:100110000C943A0B0C940000AF92BF92CF92DF92F6
:10012000EF92FF920F931F93CF93DF936C017B01AC
:100130008B01040F151FEB015E01AE18BF08C0173D
:10014000D10759F06991D601ED91FC910190F081B0
:10015000E02DC6010995892B79F7C501DF91CF9173
:100160001F910F91FF90EF90DF90CF90BF90AF90D5
:100170000895FC01538D448D252F30E0842F90E0AD
:10018000821B930B541710F0CF9608950197089592
:10019000FC01918D828D981761F0A28DAE0FBF2F5B
:1001A000B11D5D968C91928D9F5F9F73928F90E0B1
:1001B00008958FEF9FEF0895FC01918D828D981720
:1001C00031F0828DE80FF11D858D90E008958FEF5D
:1001D0009FEF0895FC01918D228D892F90E0805C26
:1001E0009F4F821B91098F739927089583ED91E0AA
:1001F0000E94EA0021E0892B09F420E0822F089573
:1002000080E090E0892B29F00E94F60081110C9487
:1002100000000895FC01A48DA80FB92FB11DA35AA9
:10022000BF4F2C91848D90E001968F739927848F16
:10023000A689B7892C93A089B1898C918370806439
:100240008C93938D848D981306C00288F389E02DDA
:1002500080818F7D80830895EF92FF920F931F938B
:10026000CF93DF93EC0181E0888F9B8D8C8D981369
:100270001AC0E889F989808185FF15C09FB7F89475
:10028000EE89FF896083E889F989808183708064C1
:1002900080839FBF81E090E0DF91CF911F910F910C
:1002A000FF90EF900895F62E0B8D10E00F5F1F4F1B
:1002B0000F731127E02E8C8D8E110CC00FB607FC2A
:1002C000FACFE889F989808185FFF5CFCE010E94B8
:1002D0000A01F1CFEB8DEC0FFD2FF11DE35AFF4F1B
:1002E000F0829FB7F8940B8FEA89FB898081806246
:1002F000CFCFCF93DF93EC01888D8823B9F0AA8903
:10030000BB89E889F9898C9185FD03C0808186FDD0
:100310000DC00FB607FCF7CF8C9185FFF2CF80811F
:1003200085FFEDCFCE010E940A01E9CFDF91CF9189
:10033000089590E0FC01E458FF4F2491FC01E25540
:10034000FF4F3491FC01E656FF4FE491EE23C9F0D4
:10035000222339F0233001F1A8F4213019F12230A1
:1003600029F1F0E0EE0FFF1FEE58FF4FA591B49179
:100370008FB7F894EC91611126C030953E233C93E1
:100380008FBF08952730A9F02830C9F0243049F7ED
:10039000809180008F7D03C0809180008F77809353
:1003A0008000DFCF84B58F7784BDDBCF84B58F7DB0
:1003B000FBCF8091B0008F778093B000D2CF809137
:1003C000B0008F7DF9CF3E2BDACFCF93DF9390E053
:1003D000FC01E255FF4F249186569F4FFC0184910A
:1003E0008823D1F090E0880F991FFC01E859FF4F56
:1003F000A591B491FC01EE58FF4FC591D4916111C4
:100400000EC09FB7F8948C91E22FE0958E238C93C9
:100410002881E223E8839FBFDF91CF9108958FB7B2
:10042000F894EC91E22BEC938FBFF6CF3FB7F894A2
:100430008091CD019091CE01A091CF01B091D001DA
:1004400026B5A89B05C02F3F19F00196A11DB11D2F
:100450003FBFBA2FA92F982F8827BC01CD01620F6B
:10046000711D811D911D42E0660F771F881F991F26
:100470004A95D1F708958F929F92AF92BF92CF92F3
:10048000DF92EF92FF924B015C010E9416026B011A
:100490007C010E9416026C197D098E099F09683E35
:1004A000734081059105A8F321E0821A9108A10803
:1004B000B10888EEC80E83E0D81EE11CF11C81143F
:1004C0009104A104B10429F7FF90EF90DF90CF9041
:1004D000BF90AF909F908F900895089590E080E036
:1004E0000895CF93DF93EC0160E08E810E94990123
:1004F00061E08E810E94990160E08E810E949901E5
:100500008BE891E00197F1F7DF91CF910895CF92B9
:10051000DF92EF92FF920F931F93CF93DF936C01C3
:100520007C0187E0E80EF11CD0E0C0E0062F10E06F
:10053000B8010C2E02C0759567950A94E2F76170B8
:10054000F70181917F010E9499012196C430D10564
:1005500079F7C601DF91CF911F910F91FF90EF9036
:10056000DF90CF900C947102CF92DF92EF92FF92C6
:100570000F931F93CF93DF93EC01F62E642F8C81A2
:100580000E9499018D818F3F19F060E00E949901CE
:100590000F2D10E08F8584FF25C06E0187E0C80E07
:1005A000D11CF12CE12CB8010E2C02C07595679579
:1005B0000A94E2F76170F60181916F010E9499013E
:1005C000FFEFEF1AFF0A88E0E816F10461F7CE01A9
:1005D000DF91CF911F910F91FF90EF90DF90CF901F
:1005E0000C947102B80184E0759567958A95E1F7DE
:1005F000CE010E9487026F2DCE01DF91CF911F9116
:100600000F91FF90EF90DF90CF900C94870240E025
:10061000682F80E792E00C94B40281E00E94070307
:100620008BE39FE10197F1F7089541E00E94B40246
:1006300081E090E00895FB0101900020E9F73197F7
:10064000AF01461B570BDC01ED91FC910280F38159
:10065000E02D09948F929F92AF92BF92EF92FF92FA
:100660000F931F93CF93DF93CDB7DEB7A1970FB64C
:10067000F894DEBF0FBECDBF7C01FA01CB0119A2F9
:10068000223008F42AE08E010F5D1F4F822E912C3C
:10069000B12CA12CBF01A50194010E94120BF901FC
:1006A000CA016A300CF5605DD8016E938D01232B71
:1006B000242B252B79F790E080E0109721F0BD01E5
:1006C000C7010E941B03A1960FB6F894DEBF0FBEB0
:1006D000CDBFDF91CF911F910F91FF90EF90BF9011
:1006E000AF909F908F900895695CDECFCF93DF939A
:1006F000BC0183ED91E00E941B03EC016EE171E00F
:1007000083ED91E00E941B038C0F9D1FDF91CF9121
:1007100008952F923F924F925F926F927F928F92A5
:100720009F92AF92BF92CF92DF92EF92FF921F9370
:10073000CF93DF93EC016A017B01722EAB0196012E
:10074000CB01B6010E940D0B61E271E0811126C060
:1007500046015701E894B7F82FEF3FEF4FE75FE707
:10076000C501B4010E940D0B81110CC02FEF3FEFAA
:100770004FE75FE7C501B4010E94430965E271E0FC
:10078000181664F02FEF3FEF4FE75FE4C701B601A3
:100790000E949B0A1816B4F469E271E0CE01DF9161
:1007A000CF911F91FF90EF90DF90CF90BF90AF90CF
:1007B0009F908F907F906F905F904F903F902F9081
:1007C0000C941B032FEF3FEF4FE75FECC701B6011F
:1007D0000E94430987FDE0CF20E030E0A901C70176
:1007E000B6010E944309312C212C87FF0DC0E881FE
:1007F000F9810190F081E02D6DE2CE0109951C0197
:10080000F7FAF094F7F8F09410E060E070E080E020
:100810009FE3711641F020E030E040E251E40E9495
:1008200048091F5FF6CFA70196010E94D7082B0148
:100830003C010E94BA094B015C012AE0BC01A40101
:10084000CE010E942A037C01E20CF31C1123E1F18A
:10085000C501B4010E94E9099B01AC01C301B201C9
:100860000E94D6084B015C01E881F9810190F0817A
:10087000E02D6EE2CE010995E80EF91E115020F12F
:1008800020E030E040E251E4C501B4010E94A00A3A
:100890002B013C010E94BA094B01B12CA12C2AE08A
:1008A000B501A401CE010E942A03E80EF91EC5017C
:1008B000B4010E94E9099B01AC01C301B2010E948D
:1008C000D6084B015C01DACFC701DF91CF911F91B0
:1008D000FF90EF90DF90CF90BF90AF909F908F9060
:1008E0007F906F905F904F903F902F9008951F9250
:1008F0000F920FB60F9211242F933F934F935F9354
:100900006F937F938F939F93AF93BF93EF93FF93D7
:1009100083ED91E00E940A01FF91EF91BF91AF91A9
:100920009F918F917F916F915F914F913F912F9107
:100930000F900FBE0F901F9018951F920F920FB639
:100940000F9211242F938F939F93EF93FF93E09136
:10095000E301F091E4018081E091E901F091EA0185
:1009600082FD1BC090818091EC018F5F8F7320917D
:10097000ED01821741F0E091EC01F0E0ED52FE4F05
:10098000958F8093EC01FF91EF919F918F912F9123
:100990000F900FBE0F901F9018958081F4CF1F927B
:1009A0000F920FB60F9211242F933F938F939F9323
:1009B000AF93BF938091C9019091CA01A091CB01DF
:1009C000B091CC013091C80123E0230F2D3758F5A9
:1009D0000196A11DB11D2093C8018093C901909378
:1009E000CA01A093CB01B093CC018091CD0190912D
:1009F000CE01A091CF01B091D0010196A11DB11DF2
:100A00008093CD019093CE01A093CF01B093D001FC
:100A1000BF91AF919F918F913F912F910F900FBEFA
:100A20000F901F90189526E8230F0296A11DB11D67
:100A3000D2CFCF93DF931092D6011092D50188EEDA
:100A400093E0A0E0B0E08093D7019093D801A09309
:100A5000D901B093DA0184E091E09093D4018093BE
:100A6000D30185EC90E09093E0018093DF0184EC6A
:100A700090E09093E2018093E10180EC90E090930C
:100A8000E4018093E30181EC90E09093E601809390
:100A9000E50182EC90E09093E8018093E70186EC19
:100AA00090E09093EA018093E9011092EC0110929A
:100AB000ED011092EE011092EF011092950210924A
:100AC00073021092720286E191E09093710280931A
:100AD00070028CE0809374028FEF809375028BE03C
:100AE0008093760285E08093770284E08093780299
:100AF00083E08093790282E080937A0210927B02F5
:100B000010927C0210927D0210927E0210927F025F
:100B100081E0809383021092840280E480938502B6
:100B200080E18093860280E58093870261E08CE01B
:100B30000E94E501809175028F3F19F061E00E94EB
:100B4000E50161E0809176020E94E501C0E7D2E014
:100B50009E012057324080917F0284FD0BC084E0CB
:100B600090E021962817390744F461E08E810E94B5
:100B7000E501EECF88E090E0F4CF8BE39DE00197B4
:100B8000F1F760E0809174020E94990160E0809129
:100B900076020E949901809175028F3F19F060E002
:100BA0000E94990180917F0284FD34C063E080E758
:100BB00092E00E948702CBE4D6E4CE010197F1F7E0
:100BC00063E080E792E00E9487022197F1F763E0FB
:100BD00080E792E00E94870283E592E00197F1F7B7
:100BE00062E080E792E00E94870280917F0280624B
:100BF0000E94070384E0809380028CE00E94070338
:100C00000E940D0382E08093810286E0DF91CF9104
:100C10000C94070380620E9407038BE496E401971B
:100C2000F1F780917F0280620E94070383E592E0E2
:100C30000197F1F780917F0280620E940703D5CF70
:100C4000789484B5826084BD84B5816084BD85B5A7
:100C5000826085BD85B5816085BD80916E008160B3
:100C600080936E0010928100809181008260809359
:100C7000810080918100816080938100809180005B
:100C80008160809380008091B10084608093B10086
:100C90008091B00081608093B00080917A00846080
:100CA00080937A0080917A00826080937A008091AC
:100CB0007A00816080937A0080917A0080688093C6
:100CC0007A001092C10061E086E00E94E50161E0D7
:100CD00087E00E94E50161E089E00E94E50161E0B2
:100CE0008AE00E94E501E091E301F091E40182E0F5
:100CF0008083E091DF01F091E0011082E091E10159
:100D0000F091E2018FEC80831092EB01E091E7011A
:100D1000F091E80186E08083E091E501F091E60141
:100D2000808180618083E091E501F091E60180811E
:100D300088608083E091E501F091E6018081806820
:100D40008083E091E501F091E60180818F7D8083D1
:100D500061E088E00E94E50164EF71E080E090E0EE
:100D60000E943B028DE291E00E94760368EE73E000
:100D700080E090E00E943B0261E083E10E94E50197
:100D800064EF71E080E090E00E943B0283E591E037
:100D90000E94760368EE73E080E090E00E943B02E0
:100DA000B6EB6B2EB0E07B2EC2EAEC2EC0E0FC2E40
:100DB000D0E98D2E99249394A12CB12CD0E410E08D
:100DC000C12E10E0D12E80919502882309F0F8946D
:100DD000F301C491F7018491E82FF0E0EE0FFF1FBB
:100DE000E057FF4F0591149161E088E00E94E50112
:100DF00060E088E00E94990162E170E080E090E0AC
:100E00000E943B0261E088E00E94990160E088E076
:100E10000E94E50180E293E0F80120812C2309F48F
:100E200051C10197C9F7809195028111A3C18091A9
:100E300090028F7780939002C0919202CF77C093F7
:100E40009202682F70E090E080E00E94E9096093D0
:100E500088027093890280938A0290938B026C2F90
:100E600070E090E080E00E94E90960938C0270934A
:100E70008D0280938E0290938F026AE671E083ED7B
:100E800091E00E941B034091880250918902609179
:100E90008A0270918B0222E083ED91E00E94890327
:100EA0006EE771E083ED91E00E941B030E940D0349
:100EB000E1E0809183028111E0E0E195F0E0E0590A
:100EC000FD4F848980680E94070362E871E080E733
:100ED00092E00E941B034091880250918902609128
:100EE0008A0270918B0222E080E792E00E948903DF
:100EF0006EE771E080E792E00E941B0368EE73E00A
:100F000080E090E00E943B026DE871E083ED91E0AB
:100F10000E941B0340918C0250918D0260918E02C1
:100F200070918F0222E083ED91E00E94890384EAB0
:100F300091E00E9476030E940D03E0918302E2306B
:100F400008F01AC1E150F0E0E059FD4F84898F5F4D
:100F500080680E94070369EA71E080E792E00E94DE
:100F60001B0340918C0250918D0260918E02709112
:100F70008F0222E080E792E00E94890367EB71E034
:100F800080E792E00E941B0368EE73E080E090E04F
:100F90000E943B02D0937C0080917A008064809311
:100FA0007A0080917A0086FDFCCF90917800809144
:100FB00079008927982789279093D2018093D101BE
:100FC0000E940D03E0918302E33008F0D7C0E150A6
:100FD000F0E0E059FD4F84898E5F80680E9407032E
:100FE0006BEB71E080E792E00E941B032090D1013F
:100FF0003090D201032C000C440855082AE0B201BD
:10100000A10157FE0EC041E06DE280E792E00E9430
:10101000B40244275527BA014219530964097509D6
:101020002AE080E792E00E942A036FE771E080E700
:1010300092E00E941B0368EE73E080E090E00E9463
:101040003B028091D1019091D2018536910584F0C7
:1010500020E030E044E352E460918C0270918D0214
:1010600080918E0290918F020E949B0A87FD88C01A
:1010700061E089E00E94990168E873E180E090E016
:101080000E943B0260E086E00E94990168EE73E0F6
:1010900080E090E00E943B0261E087E00E949901BD
:1010A00068EE73E080E090E00E943B02C114D1043E
:1010B00009F489CE0E94F600882309F484CE0E94A8
:1010C000000081CE80E991E0F80120812C2319F401
:1010D0000197D1F7A8CE80E991E0F80120812C2377
:1010E00099F10197D1F79FCE6A2F552009F49BCE35
:1010F000F801A081AC2329F5662319F1F8E25F120B
:1011000031C08417950708F4AC01C501B401641B14
:10111000750B8109910922E09595879577956795DB
:101120002A95D1F79B01369449F4E42DF0E0E85775
:10113000FD4FB0874394B0E080E8382E5A9480E9A0
:1011400091E0019789F66FCE412CB0E030E8332E64
:1011500030E020E080E991E040E951E060E078E2B1
:10116000572EC6CFBA01621B730B68177907D8F2E6
:10117000B329D9CF78945BCEE1E0E5CEE2E028CF89
:1011800060E089E00E94990168E873E180E090E006
:101190000E943B0261E086E00E94990168EE73E0E4
:1011A00080E090E00E943B0260E077CF5058BB2780
:1011B000AA270E94EE080C94610A0E94530A38F094
:1011C0000E945A0A20F039F49F3F19F426F40C9437
:1011D000500A0EF4E095E7FB0C944A0AE92F0E94AE
:1011E000720A58F3BA17620773078407950720F04D
:1011F00079F4A6F50C94940A0EF4E0950B2EBA2F10
:10120000A02D0B01B90190010C01CA01A00111240C
:10121000FF27591B99F0593F50F4503E68F11A16B8
:10122000F040A22F232F342F4427585FF3CF469549
:1012300037952795A795F0405395C9F77EF41F166B
:10124000BA0B620B730B840BBAF09150A1F0FF0F35
:10125000BB1F661F771F881FC2F70EC0BA0F621F21
:10126000731F841F48F4879577956795B795F79511
:101270009E3F08F0B0CF9395880F08F09927EE0FA6
:101280009795879508950E94260A08F481E00895AD
:101290000E945C090C94610A0E945A0A58F00E944C
:1012A000530A40F029F45F3F29F00C944A0A511187
:1012B0000C94950A0C94500A0E94720A68F39923C0
:1012C000B1F3552391F3951B550BBB27AA27621742
:1012D0007307840738F09F5F5F4F220F331F441F4F
:1012E000AA1FA9F335D00E2E3AF0E0E832D0915083
:1012F0005040E695001CCAF72BD0FE2F29D0660F70
:10130000771F881FBB1F261737074807AB07B0E8B2
:1013100009F0BB0B802DBF01FF2793585F4F3AF0B8
:101320009E3F510578F00C944A0A0C94950A5F3F51
:10133000E4F3983ED4F3869577956795B795F7953E
:101340009F5FC9F7880F911D9695879597F9089526
:10135000E1E0660F771F881FBB1F621773078407C2
:10136000BA0720F0621B730B840BBA0BEE1F88F7D1
:10137000E09508950E947A0A88F09F5798F0B92F57
:101380009927B751B0F0E1F0660F771F881F991FBA
:101390001AF0BA95C9F714C0B13091F00E94940ABE
:1013A000B1E008950C94940A672F782F8827B85FCE
:1013B00039F0B93FCCF3869577956795B395D9F712
:1013C0003EF490958095709561957F4F8F4F9F4F1C
:1013D0000895E89409C097FB3EF490958095709528
:1013E00061957F4F8F4F9F4F9923A9F0F92F96E971
:1013F000BB279395F695879577956795B795F111E6
:10140000F8CFFAF4BB0F11F460FF1BC06F5F7F4F82
:101410008F4F9F4F16C0882311F096E911C0772394
:1014200021F09EE8872F762F05C0662371F096E89D
:10143000862F70E060E02AF09A95660F771F881F6C
:10144000DAF7880F9695879597F90895990F000810
:10145000550FAA0BE0E8FEEF16161706E807F90786
:10146000C0F012161306E407F50798F0621B730B21
:10147000840B950B39F40A2661F0232B242B252BA2
:1014800021F408950A2609F4A140A6958FEF811D45
:10149000811D089597F99F6780E870E060E00895E6
:1014A0009FEF80EC089500240A941616170618067C
:1014B0000906089500240A94121613061406050658
:1014C0000895092E0394000C11F4882352F0BB0FE9
:1014D00040F4BF2B11F460FF04C06F5F7F4F8F4F4C
:1014E0009F4F089557FD9058440F551F59F05F3F87
:1014F00071F04795880F97FB991F61F09F3F79F036
:1015000087950895121613061406551FF2CF4695B7
:10151000F1DF08C0161617061806991FF1CF869539
:101520007105610508940895E894BB27662777271D
:10153000CB0197F908950E94260A08F48FEF0895C9
:101540000E94B30A0C94610A0E94530A38F00E9468
:101550005A0A20F0952311F00C944A0A0C94500A70
:1015600011240C94950A0E94720A70F3959FC1F39E
:10157000950F50E0551F629FF001729FBB27F00D41
:10158000B11D639FAA27F00DB11DAA1F649F662796
:10159000B00DA11D661F829F2227B00DA11D621FE5
:1015A000739FB00DA11D621F839FA00D611D221F9F
:1015B000749F3327A00D611D231F849F600D211D83
:1015C000822F762F6A2F11249F5750409AF0F1F006
:1015D00088234AF0EE0FFF1FBB1F661F771F881F6F
:1015E00091505040A9F79E3F510580F00C944A0A53
:1015F0000C94950A5F3FE4F3983ED4F38695779573
:101600006795B795F795E7959F5FC1F7FE2B880F14
:10161000911D9695879597F908950E94260A880B43
:10162000990B0895A1E21A2EAA1BBB1BFD010DC048
:10163000AA1FBB1FEE1FFF1FA217B307E407F50782
:1016400020F0A21BB30BE40BF50B661F771F881F5E
:10165000991F1A9469F760957095809590959B01F4
:10166000AC01BD01CF010895EE0FFF1F0590F4916D
:08167000E02D0994F894FFCF6E
:10167800000000002C018C00B9007901EA00C800C4
:10168800DC000000000015038C006E026D020D0ADC
:10169800006E616E00696E66006F7666004448549D
:1016A80031312048756D6964697479202620746524
:1016B8006D70657261747572652053656E736F72B3
:1016C8000A0A00736F696C206D6F697374757265AF
:1016D8002053656E736F720A0A0043757272656EE5
:1016E800742068756D6964697479203D200025202F
:1016F8000A0048756D69646974793A200043757207
:1017080072656E742074656D70657261747572654A
:10171800203D200043200A200054656D70657261E9
:10172800747572653A200043200A00536F696C4D46
:081738006F6973743A20000090
:00000001FF
